:10000000EA2BFF3FFF3FFF3FFF3FFF3FFF3FFF3F29
:10001000FF3FFF3FFF3FFF3FFF3FFF3FFF3FFF3FF0
:10002000FF3FFF3FFF3FFF3FFF3FFF3FFF3FFF3FE0
:10003000FF3FFF3FFF3FFF3FFF3FFF3FFF3FFF3FD0
:10004000FF3FFF3FFF3FFF3FFF3FFF3FFF3FFF3FC0
:10074000FF3FFF3FFF3FFF3FFF3FFF3F3F34063488
:100750005B344F3466346D347C3407347F34673413
:10076000103084001B3083128C0004088D000A3086
:100770008E000C088400831300088F008C0A0D087B
:1007800084000F0880008D0A8E0BB92B831685011B
:1007900086018312850186019A010A301A02031824
:1007A000CC2B1A08103E84008313000886000B30FF
:1007B0008E0026308D005D308C008C0BDD2B8D0B78
:1007C000DD2B8E0BDD2BE42B013083128C000C080B
:1007D0009A07CD2BA6239B00A7239C00A8239D004E
:1007E000A9239E00AA239F00AB23A000AC23A10055
:1007F000AD23A200AE23A300AF23A4008301B02B3E
:10420000FF00FF00FF00FF00FF00FF00FF00FF00B6
:10421000FF00FF00FF00FF00FF00FF00FF00FF00A6
:10422000FF00FF00FF00FF00FF00FF00FF00FF0096
:10423000FF00FF00FF00FF00FF00FF00FF00FF0086
:10424000FF00FF00FF00FF00FF00FF00FF00FF0076
:10425000FF00FF00FF00FF00FF00FF00FF00FF0066
:10426000FF00FF00FF00FF00FF00FF00FF00FF0056
:10427000FF00FF00FF00FF00FF00FF00FF00FF0046
:10800000FF00FF00FF00FF00FF00FF00FF00FF0078
:10801000FF00FF00FF00FF00FF00FF00FF00FF0068
:10802000FF00FF00FF00FF00FF00FF00FF00FF0058
:10803000FF00FF00FF00FF00FF00FF00FF00FF0048
:10804000FF00FF00FF00FF00FF00FF00FF00FF0038
:10805000FF00FF00FF00FF00FF00FF00FF00FF0028
:10806000FF00FF00FF00FF00FF00FF00FF00FF0018
:10807000FF00FF00FF00FF00FF00FF00FF00FF0008
:08400000FF3FFF3FFF3FFF3FC0
:02400E00F23F7F
:10401000000000000000000000000000FF3FFF3F24
:00000001FF
