:10000000FE2BFF3FFF3FFF3FFF3FFF3FFF3FFF3F15
:10001000FF3FFF3FFF3FFF3FFF3FFF3FFF3FFF3FF0
:10002000FF3FFF3FFF3FFF3FFF3FFF3FFF3FFF3FE0
:10003000FF3FFF3FFF3FFF3FFF3FFF3FFF3FFF3FD0
:10004000FF3FFF3FFF3FFF3FFF3FFF3FFF3FFF3FC0
:10079000FF3F0130831685008601831285018601A3
:1007A0001A308E005E308D006E308C008C0BD62B94
:1007B0008D0BD62B8E0BD62B0000013083128F07AA
:1007C0000318900A003090071008803ACF0081305B
:1007D0004F02031DED2B00300F02031CF22B83127E
:1007E0008F01900183120F088600A3308D005530D1
:1007F0008C008C0BF92B8D0BF92BDD2B8301C92B76
:10420000FF00FF00FF00FF00FF00FF00FF00FF00B6
:10421000FF00FF00FF00FF00FF00FF00FF00FF00A6
:10422000FF00FF00FF00FF00FF00FF00FF00FF0096
:10423000FF00FF00FF00FF00FF00FF00FF00FF0086
:10424000FF00FF00FF00FF00FF00FF00FF00FF0076
:10425000FF00FF00FF00FF00FF00FF00FF00FF0066
:10426000FF00FF00FF00FF00FF00FF00FF00FF0056
:10427000FF00FF00FF00FF00FF00FF00FF00FF0046
:10800000FF00FF00FF00FF00FF00FF00FF00FF0078
:10801000FF00FF00FF00FF00FF00FF00FF00FF0068
:10802000FF00FF00FF00FF00FF00FF00FF00FF0058
:10803000FF00FF00FF00FF00FF00FF00FF00FF0048
:10804000FF00FF00FF00FF00FF00FF00FF00FF0038
:10805000FF00FF00FF00FF00FF00FF00FF00FF0028
:10806000FF00FF00FF00FF00FF00FF00FF00FF0018
:10807000FF00FF00FF00FF00FF00FF00FF00FF0008
:08400000FF3FFF3FFF3FFF3FC0
:02400E00F23F7F
:10401000000000000000000000000000FF3FFF3F24
:00000001FF
